:0B0432003031323334353637383900B2
:0C040E00E4FFE4FE0EBE21FC0FBF0AF666
:01041A0022BF
:0203FE00AD0749
:0D040000E4FCECC39D500612040E0C80F5C8
:01040D0022CC
:1003E800C2A5D2A6D2A700000000A2879201C2A788
:0503F800A201E433FF47
:0103FD0022DD
:07039A007F051203FE7F380E
:1003A100AE071203E8EF640160F8C2A5C2A6C2A7B6
:1003B10000008E8000000000D2A700000000C2A74C
:0103C1002219
:07043D00EF4480FF0203A160
:0703C200E50990043293FFEE
:1003C900AE071203E8EF640160F8D2A5C2A6C2A77E
:0F03D9008E8000000000D2A700000000C2A72203
:10036C007F0F12039C12039A12039A7F051203FE4D
:10037C007F0C1203A17F051203FE7F061203A17FDF
:0E038C00051203FE7F011203A17F050203FE8E
:1000160012036C7F0A1203FE7F0B12043D7F32121D
:1000260003C97F301203C97F331203C97F3112031C
:10003600C97F391203C9E4F518F508C2B7758910E6
:10004600C288C2A8D2AFE4FF12043D1203C2E50A79
:1000560093FF1203C9E50C93FF1203C97F2E120307
:10006600C9E50E93FF1203C97F631203C97F6D12A0
:1000760003C9C2AFD2B7120444C2B730B2FDC2023E
:10008600D2A8D2AAE4F58DF58BC28FD28ED2AFE577
:100096008DC3941E40F9C28EC2A830022975210074
:1000A600850D22E522752200F521E50F4222E4AEF8
:1000B60021AF22FC7D0C1202B98E218F227D3A12CD
:1000C60002CB8E218F22200205E4F521F522E518C8
:1000D60025E02410F8A62108A6220518E5186403D1
:1000E600600302004CE5112513FFE5103512FEE50D
:1000F600152FFFE5143EFEE5172FFFE5163EFEEF32
:100106007802CEC313CE13D8F9F5228E211203201E
:10011600851221851322AF22AE21E524B50708E515
:1001260023B50603E4F525E5246F7003E5236E6029
:10013600020525E525C39403400AE4F5258E238FA1
:0A01460024120239E4F51802004CFF
:03000300020427CD
:0B042700858D0D858B0FD202C2A8321C
:0300130002015097
:10015000C0E0C083C082C0D075D000C004C005C05C
:1001600006C0077F0F1203FE30B30302022830B32C
:10017000FDE519B40203751900E51970547F4012AA
:10018000043D7F201203C97F201203C97F20120380
:10019000C97F201203C97F201203C97F201203C91F
:1001A0007F631203C97F6D1203C97F4012043D7F34
:1001B000201203C91203C2E50A93FF1203C9E50C1A
:1001C00093FF1203C97F2E1203C9E50E93FF12039A
:1001D000C9E5196401704F7F4812043D7F20120366
:1001E000C97F201203C97F201203C97F201203C9CF
:1001F0007F201203C97F201203C97F631203C97FC6
:100200006D1203C97F4912043D1203C2E50A93FF30
:100210001203C9E50C93FF1203C97F2E1203C9E52F
:100220000E93FF1203C90519D007D006D005D004DC
:09023000D0D0D082D083D0E0329E
:03000B00020006EA
:0100060032C7
:04023900AB07AA065F
:10023D007C037DE81202CB8F287C037DE8AF03AEF3
:10024D00021202CBAA04AB057C007D64AF03AE02A3
:10025D001202CB8F277C007D64AF03AE021202CB5E
:10026D00AA04AB057C007D0AAF03AE021202CB8F50
:10027D00267C007D0AAF03AE021202CBAF05C2AFE2
:10028D0085280985270A85260C8F0EE509700CE552
:10029D000A7008E50C7004E50E600EE5097004E5C2
:0B02AD000A6003D38001C39290D2AF1F
:0102B8002223
:06044400E4FF0FBF3CFCC9
:01044A00228F
:10032000D3E5119513E5109512400EAE10AF11856F
:1003300012108513118E128F13D3E5119515E51048
:100340009514400EAE14AF158510148511158E103E
:100350008F11D3E5139515E5129514400EAE12AF2B
:0B036000138514128515138E148F15E1
:01036B00226F
:0300000002041BDC
:0C041B00787FE4F6D8FD758128020016F9
:1002B900EF8DF0A4A8F0CF8CF0A428CE8DF0A42E59
:0202C900FE2213
:1002CB00BC000BBE0029EF8DF084FFADF022E4CC17
:1002DB00F875F008EF2FFFEE33FEEC33FCEE9DECE0
:1002EB00984005FCEE9DFE0FD5F0E9E4CEFD22ED26
:1002FB00F8F5F0EE8420D21CFEADF075F008EF2F70
:10030B00FFED33FD4007985006D5F0F222C398FD60
:05031B000FD5F0EA22FD
:00000001FF
