:10050300BBB7BEB3CEC2B6C80052585F4E002E0072
:08051300A1E600000000000059
:0E052F00050D01020304050508010203040581
:10026E00EF75F06484FEEF75F06484AFF0EF75F017
:10027E000A84FDEF75F00A84AFF0E4FCEE600A2408
:10028E0030FBEC2413F8A6030CEE7003ED600BEDBF
:10029E002430FE74132CF8A6060CEF2430FF7413D2
:1002AE002CF8A6070C74132CF8E4F6FB7A007913DD
:0102BE00221D
:0403BA00C2B77E0048
:0403BE008E528F5379
:1003C200E4FBFAE5533392B3E55325E0F553E552E6
:1003D20033F552D2B5A2B6E4334253C2B50BBB00D9
:0C03E200010AEB64084A70DBAE52AF5316
:0103EE0022EC
:0B053E001203BAE4FFFE1203BED2B7A6
:01054900228F
:0604B400C2B47D0F7F20A1
:1004BA001203BA8F828E83AF057E001203BED2B7B3
:0404CA00AE83AF82CC
:0104CE00220B
:060348008B4C8A4D894E2A
:10034E001203BA8E508F51E4FDFCC3ED954FEC9421
:10035E0000501BE4FFFE1203BEAB4CAA4DA94E8DFE
:10036E00828C83EF1201120DBD00010C80DCD2B71E
:04037E00AE50AF517D
:010382002258
:0B02BF007B007A00790D754C057F3044
:0602CA008B498A4A894BB2
:1002D0001203BA8E4D8F4EE4FDFCC3ED954CEC94A9
:1002E00000501EAB49054BE54BAA4A7002054A1463
:1002F000F91200F9FF7E001203BE0DBD00010C8053
:07030000D9D2B7AE4DAF4E9C
:0103070022D3
:100308007F017E00120477C2B4D2B7C2B5D2B2124E
:1003180002BF7B007A007908754C057F2A1202CA51
:10032800E4FD7F211204BA0D7F221204BA7F251240
:1003380004BA7D037F311204BA7D077F2C0204BA08
:100383008B178A188919C2B41202BF7B007A0079CD
:100393000D754C057F2A1202CAAB17AA18A9197545
:1003A3004C037FA01202CA7D0E7F201204BAD2B47E
:0703B3007F017E00020477C8
:0C054A001204B4D2B47F0A7E00020477D1
:06041B008B488A49894A62
:10042100E4FC7F0712053E8F12C2B4AB48AA49A96A
:100431004A754F037F611203487C017DFF7F2712BC
:0404410004BA7F0179
:010445002294
:10049500E4FFFEC2A0D2A1C2A2D2A2E58030E70845
:0E04A5000FEF70010E4E70F3C2A2C2A0D2A1E2
:0104B3002226
:1004CF00AD07120495C2A0C2A1C2A28D800000D2B6
:0A04DF00A20000C2A2D2A1C2A02216
:1004E900AD07120495D2A0C2A1C2A28D800000D28C
:0A04F900A20000C2A2D2A1C2A022FC
:070470001204CF7F327E0071
:10047700D3EF9400EE940040147D7D7C00ED1D7059
:0D048700011CED4C70F7EF1F70E61E80E3C6
:010494002245
:10051B007F301204707F011204707F061204707F0B
:04052B000C0204CFEB
:1003EF00EC7024ED14601014601314601624037065
:1003FF0016EF2480FB8010EF2490FB800AEF2488F7
:0C040F00FB8004EF2498FBAF030204CF35
:100446008B488A49894A7C001203EFAB48AA49A91E
:100456004A1200F96013054AE54A7002054914F983
:0A0466001200F9FF1204E980E222FF
:1001340078427C007D007BFF7A0579167E007F057E
:100144001200D3E4F547120308D2B27F647E001292
:10015400047712051B7F011204CF7F027E00120474
:10016400777BFF7A057903E4FDFF1204467BFF7A6F
:1001740005790C7D02E4FF1204467FE87E03120435
:100184007712054A20B2FD7B007A00792212041B03
:10019400AF2212026E7D01E4FF1204467BFF7A0552
:1001A40079117D017F01120446AF2312026E7D0195
:1001B4007F021204467BFF7A0579137D017F0312C7
:1001C4000446AF2412026E7D027F03120446D2B2AB
:0E01D4001204B4D2B47F057E0012047780A618
:030000000201E218
:0C01E200787FE4F6D8FD758153020229F5
:10000300E709F608DFFA8046E709F208DFFA803EDF
:1000130088828C83E709F0A3DFFA8032E309F608CC
:10002300DFFA8078E309F208DFFA807088828C8334
:10003300E309F0A3DFFA806489828A83E0A3F608E8
:10004300DFFA805889828A83E0A3F208DFFA804CC2
:1000530080D280FA80C680D4806980F28033801099
:1000630080A680EA809A80A880DA80E280CA803302
:1000730089828A83ECFAE493A3C8C582C8CCC5837A
:10008300CCF0A3C8C582C8CCC583CCDFE9DEE7804A
:100093000D89828A83E493A3F608DFF9ECFAA9F0C9
:1000A300EDFB2289828A83ECFAE0A3C8C582C8CC1F
:1000B300C583CCF0A3C8C582C8CCC583CCDFEADE38
:1000C300E880DB89828A83E493A3F208DFF980CC9A
:1000D30088F0EF60010E4E60C388F0ED2402B40493
:1000E3000050B9F582EB2402B4040050AF2323453A
:0600F3008223900053730C
:1000F900BB010689828A83E0225002E722BBFE0205
:09010900E32289828A83E4932237
:10011200F8BB010DE58229F582E5833AF583E8F023
:10012200225006E92582C8F622BBFE05E92582C8CF
:02013200F222B7
:1001EE00020134E493A3F8E493A34003F68001F2F2
:1001FE0008DFF48029E493A3F85407240CC8C33312
:10020E00C4540F4420C8834004F456800146F6DFE0
:10021E00E4800B010204081020408090052FE47E3C
:10022E00019360BCA3FF543F30E509541FFEE493D5
:10023E00A360010ECF54C025E060A840B8E493A39C
:10024E00FAE493A3F8E493A3C8C582C8CAC583CAC7
:10025E00F0A3C8C582C8CAC583CADFE9DEE780BE7F
:01053D0000BD
:00000001FF
