:10049400C0EDCFEBB5E7D1B93A00CAB5BCCAB5E7F0
:1004A400D1B93A0020202020202020202020202004
:1004B40020202020003031323334353637383900AB
:1005DF00010D00020E0000C102011064010A0001AA
:0805EF000C00010800010900E5
:0505F8001205C57F3271
:1005FD00AD071FED600B7E78EED3940040F21E80A8
:01060D00F7F5
:01060E0022C9
:0F062300EF75F064A4FFAEF07C007DC8120112E9
:0106320022A5
:0F063300EF75F0C8A4FFAEF07C007D64120112D9
:010642002295
:10001E00E4F511F51275A0F085A012E51264F070EA
:10002E00030200F67F051205FDE51264F07003026F
:10003E0000E875A0FE85A012E5122482601B24C084
:10004E00601224E0600924F07012751110800D7595
:10005E00110C8008751108800375110475A0FD85BB
:10006E00A012E5122483601B24C0601224E06009F4
:10007E0024F0701275110F800D75110B800875111B
:10008E0007800375110375A0FB85A012E512248568
:10009E00601B24C0601224E0600924F070127511F8
:1000AE000E800D75110A80087511068003751102F8
:1000BE0075A0F785A012E5122489601B24C060127A
:1000CE0024E0600924F0701275110D800D75110970
:1000DE0080087511058003751101E51264F0600842
:0A00EE0085A0125312F080F2AF114A
:0100F80022E5
:1003B100EF24FE601B14602614602F146038146053
:1003C100422405704AE510C394C650437414800951
:1003D100E510D39401403874EC2510F51022E51096
:1003E100C394C6502A0510051022E510D39401408C
:1003F1001E1510151022B28CE510C394C64010755D
:1004010010C622B28EE510D394015003751001225B
:10022900C20012001EEF24FBB40C00507690024469
:1002390075F003A4C58325F0C58373020268020221
:100249006F0202760202AC02027D02028402028B74
:100259000202AC0202920202990202A00202A775EE
:100269000A01D200803D750A02D2008036750A0360
:10027900D200802F750A04D2008028750A05D200A1
:100289008021750A06D200801A750A07D2008013E8
:10029900750A08D200800C750A09D2008005E4F5B8
:0502A9000AD200A200D2
:0102AE00222D
:1002AF00C20112001EEF24FBB40C0050769002CA5C
:1002BF0075F003A4C58325F0C583730202EE020215
:1002CF00F50202FC02033202030302030A020311C6
:1002DF0002033202031802031F02032602032D75C5
:1002EF000C01D201803D750C02D2018036750C03D2
:1002FF00D201802F750C04D2018028750C05D20114
:10030F008021750C06D201801A750C07D20180135B
:10031F00750C08D201800C750C09D2018005E4F52B
:05032F000CD201A20147
:0103340022A6
:10058700E4FFFEC2B0D2B1C2B4D2B4E58030E7080E
:0E0597000FEF70010E4E70F3C2B4C2B0D2B1BD
:0105A5002233
:1005C500AD07120587C2B0C2B1C2B48D800000D29A
:0A05D500B40000C2B4D2B1C2B022DB
:0D051E007F061206437F2E12052BE993FF86
:10052B00AD07120587D2B0C2B1C2B48D800000D224
:0A053B00B40000C2B4D2B1C2B02275
:10060F007F301205F87F011205F87F061205F87F7B
:04061F000C0205C5FF
:1004F200EC7024ED14601014601314601624037061
:1005020016EF2480FB8010EF2490FB800AEF2488F2
:0C051200FB8004EF2498FBAF030205C53A
:0404C4007BFFE4FFD7
:1004C8008B118A1289137C001204F2AB11AA12A9AB
:1004D800131200F960130513E5137002051214F9DD
:0A04E8001200F9FF12052B80E2223A
:0C064300AA037C001204F2AF0202052B97
:1005A6007BFF7A047994E4FDFF1204C87F2C1205C0
:0F05B600FD7A04799E7D011204C47F2C0205FD9D
:040411008C118D12AB
:10041500EF75F00A84FEEF75F00A84A9F0EE9004FA
:10042500B993FBE4FD12051E7F5612052BAE11AFE5
:10043500127C007D0A120167AB07AE11AF127C007A
:100445007D0A120167A905EB93FB7D0112051E7F4D
:040455005602052B1B
:10045900D2B7C2B5C2B70000E4FBFAED25E0FDEC66
:1004690033FCA2B6E4334205D2B500C2B50BBB00DA
:10047900010AEB64084A70E3D2B77A007B1100EBFA
:0A0489001B70011AEB4A70F6AF0574
:010493002246
:1003350085109012060F1205A6D2A8D2AAD28A75E8
:100345008911758CFF758ACED2A9C28C758DFF7502
:100355008BCED2ABC28ED2AF75A00F30020BC202CC
:1003650012001E1203B175A00F8510901204598F4B
:100375000B050DE50DB40A18E4F50D7BFF7A04793C
:10038500A87D02FF1204C87A0479A87D031204C46B
:100395007F0A1205FDAF10120623AB07AF0B12063D
:0C03A50023EFFD7C00AF0312041180AFB9
:03001300020003E5
:07000300C2AAD202D2AA3208
:03000B00020545A6
:04054500C0E0C0D082
:10054900C28C0508E508B4020705100510750800F6
:08055900758C3C758AB0D28C50
:05056100D0D0D0E03213
:03001B0002056675
:04056600C0E0C0D061
:10056A00C28E0509E509B4020715101510750900B0
:08057A00758D3C758BB0D28E2B
:05058200D0D0D0E032F2
:0300000002019D5D
:0C019D00787FE4F6D8FD7581200201E4B3
:1000F900BB010689828A83E0225002E722BBFE0205
:09010900E32289828A83E4932237
:10011200BC000BBE0029EF8DF084FFADF022E4CCD1
:10012200F875F008EF2FFFEE33FEEC33FCEE9DEC9A
:10013200984005FCEE9DFE0FD5F0E9E4CEFD22EDE0
:10014200F8F5F0EE8420D21CFEADF075F008EF2F2A
:10015200FFED33FD4007985006D5F0F222C398FD1B
:050162000FD5F0EA22B8
:10016700C2D5EC30E709B2D5E4C39DFDE49CFCEEB3
:1001770030E715B2D5E4C39FFFE49EFE120112C318
:10018700E49DFDE49CFC800312011230D507C3E413
:060197009FFFE49EFE2222
:1001A900020335E493A3F8E493A34003F68001F234
:1001B90008DFF48029E493A3F85407240CC8C33357
:1001C900C4540F4420C8834004F456800146F6DF26
:1001D900E4800B01020408102040809005DFE47ED2
:1001E900019360BCA3FF543F30E509541FFEE4931B
:1001F900A360010ECF54C025E060A840B8E493A3E2
:10020900FAE493A3F8E493A3C8C582C8CAC583CA0C
:10021900F0A3C8C582C8CAC583CADFE9DEE780BEC4
:0105F7000003
:00000001FF
