:1004A7006E524632344C3031B7A2C9E4B2E2CAD4F4
:1004B700005354413A004649463A002E00A1E6004F
:0E04C70054585F4E00202020202020202000CE
:0E05C300050D010203040505080102030405ED
:10021E00EF75F06484FEEF75F06484AFF0EF75F067
:10022E000A84FDEF75F00A84AFF0E4FCEE600A2458
:10023E0030FBEC2416F8A6030CEE7003ED600BED0C
:10024E002430FE74162CF8A6060CEF2430FF74161C
:10025E002CF8A6070C74162CF8E4F6FB7A00791627
:01026E00226D
:0403A800C2B77E005A
:0403AC008E508F518F
:1003B000E4FBFAE5513392B3E55125E0F551E55000
:1003C00033F550D2B5A2B6E4334251C2B50BBB00EF
:0C03D000010AEB64084A70DBAE50AF512C
:0103DC0022FE
:0B05D2001203A8E4FFFE1203ACD2B736
:0105DD0022FB
:10059A001203A88F828E83AF057E001203ACD2B7F6
:0405AA00AE83AF82EB
:0105AE00222A
:0602FB008B538A54895563
:100301001203A88E578F58E4FDFCC3ED9556EC946B
:1003110000501BE4FFFE1203ACAB53AA54A9558D48
:10032100828C83EF12034F0DBD00010C80DCD2B72C
:04033100AE57AF58BC
:0103350022A5
:0B026F007B007A00790D754D057F3093
:06027A008B4A8A4B894CFF
:100280001203A88E4E8F4FE4FDFCC3ED954DEC9408
:10029000005021AB4AAA4BA94C120336FF7E001234
:1002A00003AC7401254CF54CE4354BF54B0DBD000A
:0A02B000010C80D6D2B7AE4EAF4F5E
:0102BA002221
:1002BB007F017E00120508C2B4D2B7C2B5D2B2120A
:1002CB00026F7B007A007908754D057F2A12027A3E
:1002DB00E4FD7F2112059A0D7F2212059A7F2512CC
:1002EB00059A7D037F3112059A7D077F2C02059AB3
:100371008B468A478948C2B412026F7B007A0079A2
:100381000D754D057F2A12027AAB46AA47A9487519
:100391004D037FA012027A7D0E7F2012059AD2B4FE
:0703A1007F017E0002050848
:10054700E4FFFEC2A0D2A1C2A2D2A2E58030E70892
:0E0557000FEF70010E4E70F3C2A2C2A0D2A12F
:010565002273
:10056600AD07120547C2A0C2A1C2A28D800000D26B
:0A057600A20000C2A2D2A1C2A0227E
:10058000AD07120547D2A0C2A1C2A28D800000D241
:0A059000A20000C2A2D2A1C2A02264
:070501001205667F327E0047
:10050800D3EF9400EE940040147D7D7C00ED1D70C7
:0D051800011CED4C70F7EF1F70E61E80E334
:0105250022B3
:1005AF007F301205017F011205017F061205017FC1
:0405BF000C020566BF
:1004D500EC7024ED1460101460131460162403707E
:1004E50016EF2480FB8010EF2490FB800AEF248810
:0C04F500FB8004EF2498FBAF03020566B7
:080446007BFF7A0479CC7F02F0
:10044E008B468A4789487C001204D5AB46AA47A939
:10045E004812033660130548E5487002054714F943
:0A046E00120336FF12058080E2221F
:1003DD00D290E4F5150515E515B402F9C290E4F5D2
:1003ED00150515E515B4C8F9D290E4F5150515E513
:1003FD0015B40AF9A2909200E4F5150515E515B4AA
:04040D00C8F9A20088
:0104110022C8
:10047800E4FED29000C29000D290E4F5150515E58F
:1004880015B402F9EFC313FF3090054307808000CD
:0E049800E4F5150515E515B408F90EBE08D4F7
:0104A6002233
:10041200E4FED29000C290EF139290E4F515051518
:10042200E515B40AF9D290E4F5150515E515B40100
:10043200F9EFC313FF0EBE08D9E4F5150515E5154E
:03044200B404F906
:010445002294
:100526001203DD7FCC1204127F441204127FC87EB0
:10053600001205081203DD7FCC1204127FBE0204EE
:0105460012A2
:100003007F647E001205081205AF7F011205667F2B
:10001300027E001205087BFF7A0479A7E4FDFF1234
:10002300044E7BFF7A0479B87D01E4FF12044E7B12
:10003300FF7A0479BD7D02E4FF12044E1202BB7500
:100043002501E4F513120526120478AD071204788E
:10005300AC07EC54F860367513016305FF6304FFC6
:10006300ED04F512FDD394FF40010CEDC4540FFFD2
:10007300ECC454F02FF521ED540F75F00AA4FFE5FD
:10008300F0C4F854F0C8EFC4540F48F522EDC4543B
:100093000FFFECC454F02FF521ED540F75F00AA4B3
:1000A300FFE5F0C4F854F0C8EFC4540F48F52285B7
:1000B3002126F527852528AF2112021E7D03E4FFA3
:1000C30012044E7BFF7A0479C27D037F0112044E32
:1000D300AF2212021E7D037F0212044E7BFF7A04BD
:1000E30079C47D037F0312044E7DFF7F2712059A97
:1000F3007FE112059A7F071205D28F237F1712051E
:10010300D28F24AF2312021E7D017F0212044EAF51
:100113002412021E7D027F0212044E7B007A0079B4
:10012300261203717FC87E001205087F071205D2CD
:100133008F237F171205D28F24AF2312021E7D0156
:100143007F0412044EAF2412021E7D027F041204A8
:100153004E7BFF7A0479C77D017F0612044EAF25DB
:1001630012021E7D027F0612044E7FE87E031205F3
:10017300087D011204467D021204460525E525B4D7
:0F018300FF037525017F587E0212050802004513
:0300000002019268
:0C019200787FE4F6D8FD7581580201D991
:10033600BB010689828A83E0225002E722BBFE02C5
:09034600E32289828A83E49322F8
:10034F00F8BB010DE58229F582E5833AF583E8F0E4
:10035F00225006E92582C8F622BBFE05E92582C890
:02036F00F22278
:10019E00020003E493A3F8E493A34003F68001F274
:1001AE0008DFF48029E493A3F85407240CC8C33362
:1001BE00C4540F4420C8834004F456800146F6DF31
:1001CE00E4800B01020408102040809005C3E47EF9
:1001DE00019360BCA3FF543F30E509541FFEE49326
:1001EE00A360010ECF54C025E060A840B8E493A3ED
:1001FE00FAE493A3F8E493A3C8C582C8CAC583CA18
:10020E00F0A3C8C582C8CAC583CADFE9DEE780BECF
:0105D1000029
:00000001FF
